{
	"tutorial/part3.sol": {
		"Array2": {
			"abi": [
				{
					"inputs": [],
					"name": "getNumbers",
					"outputs": [
						{
							"internalType": "uint256[6]",
							"name": "",
							"type": "uint256[6]"
						}
					],
					"stateMutability": "view",
					"type": "function"
				},
				{
					"inputs": [
						{
							"internalType": "uint256",
							"name": "_index",
							"type": "uint256"
						},
						{
							"internalType": "uint256",
							"name": "number",
							"type": "uint256"
						}
					],
					"name": "modifyNumber",
					"outputs": [],
					"stateMutability": "nonpayable",
					"type": "function"
				}
			],
			"devdoc": {
				"kind": "dev",
				"methods": {},
				"version": 1
			},
			"evm": {
				"assembly": "    /* \"tutorial/part3.sol\":445:711  contract Array2 {\r... */\n  mstore(0x40, 0x80)\n    /* \"tutorial/part3.sol\":468:502  uint [6] numbers = [1, 2, 3, 4, 5] */\n  mload(0x40)\n  dup1\n  0xa0\n  add\n  0x40\n  mstore\n  dup1\n    /* \"tutorial/part3.sol\":488:489  1 */\n  0x01\n    /* \"tutorial/part3.sol\":468:502  uint [6] numbers = [1, 2, 3, 4, 5] */\n  0xff\n  and\n  dup2\n  mstore\n  0x20\n  add\n    /* \"tutorial/part3.sol\":491:492  2 */\n  0x02\n    /* \"tutorial/part3.sol\":468:502  uint [6] numbers = [1, 2, 3, 4, 5] */\n  0xff\n  and\n  dup2\n  mstore\n  0x20\n  add\n    /* \"tutorial/part3.sol\":494:495  3 */\n  0x03\n    /* \"tutorial/part3.sol\":468:502  uint [6] numbers = [1, 2, 3, 4, 5] */\n  0xff\n  and\n  dup2\n  mstore\n  0x20\n  add\n    /* \"tutorial/part3.sol\":497:498  4 */\n  0x04\n    /* \"tutorial/part3.sol\":468:502  uint [6] numbers = [1, 2, 3, 4, 5] */\n  0xff\n  and\n  dup2\n  mstore\n  0x20\n  add\n    /* \"tutorial/part3.sol\":500:501  5 */\n  0x05\n    /* \"tutorial/part3.sol\":468:502  uint [6] numbers = [1, 2, 3, 4, 5] */\n  0xff\n  and\n  dup2\n  mstore\n  pop\n  0x00\n  swap1\n  0x05\n  tag_1\n  swap3\n  swap2\n  swap1\n  tag_2\n  jump\t// in\ntag_1:\n  pop\n    /* \"tutorial/part3.sol\":445:711  contract Array2 {\r... */\n  callvalue\n  dup1\n  iszero\n  tag_3\n  jumpi\n  0x00\n  dup1\n  revert\ntag_3:\n  pop\n  jump(tag_4)\ntag_2:\n  dup3\n  0x06\n  dup2\n  add\n  swap3\n  dup3\n  iszero\n  tag_5\n  jumpi\n  swap2\n  0x20\n  mul\n  dup3\n  add\ntag_6:\n  dup3\n  dup2\n  gt\n  iszero\n  tag_7\n  jumpi\n  dup3\n  mload\n  dup3\n  swap1\n  0xff\n  and\n  swap1\n  sstore\n  swap2\n  0x20\n  add\n  swap2\n  swap1\n  0x01\n  add\n  swap1\n  jump(tag_6)\ntag_7:\ntag_5:\n  pop\n  swap1\n  pop\n  tag_8\n  swap2\n  swap1\n  tag_9\n  jump\t// in\ntag_8:\n  pop\n  swap1\n  jump\t// out\ntag_9:\ntag_10:\n  dup1\n  dup3\n  gt\n  iszero\n  tag_11\n  jumpi\n  0x00\n  dup2\n  0x00\n  swap1\n  sstore\n  pop\n  0x01\n  add\n  jump(tag_10)\ntag_11:\n  pop\n  swap1\n  jump\t// out\ntag_4:\n  dataSize(sub_0)\n  dup1\n  dataOffset(sub_0)\n  0x00\n  codecopy\n  0x00\n  return\nstop\n\nsub_0: assembly {\n        /* \"tutorial/part3.sol\":445:711  contract Array2 {\r... */\n      mstore(0x40, 0x80)\n      callvalue\n      dup1\n      iszero\n      tag_1\n      jumpi\n      0x00\n      dup1\n      revert\n    tag_1:\n      pop\n      jumpi(tag_2, lt(calldatasize, 0x04))\n      shr(0xe0, calldataload(0x00))\n      dup1\n      0x359f1fed\n      eq\n      tag_3\n      jumpi\n      dup1\n      0x89f915f6\n      eq\n      tag_4\n      jumpi\n    tag_2:\n      0x00\n      dup1\n      revert\n        /* \"tutorial/part3.sol\":610:708  function modifyNumber(uint _index, uint number) public {\r... */\n    tag_3:\n      tag_5\n      0x04\n      dup1\n      calldatasize\n      sub\n      dup2\n      add\n      swap1\n      tag_6\n      swap2\n      swap1\n      tag_7\n      jump\t// in\n    tag_6:\n      tag_8\n      jump\t// in\n    tag_5:\n      stop\n        /* \"tutorial/part3.sol\":511:602  function getNumbers() public view returns(uint[6] memory) {\r... */\n    tag_4:\n      tag_9\n      tag_10\n      jump\t// in\n    tag_9:\n      mload(0x40)\n      tag_11\n      swap2\n      swap1\n      tag_12\n      jump\t// in\n    tag_11:\n      mload(0x40)\n      dup1\n      swap2\n      sub\n      swap1\n      return\n        /* \"tutorial/part3.sol\":610:708  function modifyNumber(uint _index, uint number) public {\r... */\n    tag_8:\n        /* \"tutorial/part3.sol\":694:700  number */\n      dup1\n        /* \"tutorial/part3.sol\":676:683  numbers */\n      0x00\n        /* \"tutorial/part3.sol\":684:690  _index */\n      dup4\n        /* \"tutorial/part3.sol\":676:691  numbers[_index] */\n      0x06\n      dup2\n      lt\n      tag_14\n      jumpi\n      tag_15\n      tag_16\n      jump\t// in\n    tag_15:\n    tag_14:\n      add\n        /* \"tutorial/part3.sol\":676:700  numbers[_index] = number */\n      dup2\n      swap1\n      sstore\n      pop\n        /* \"tutorial/part3.sol\":610:708  function modifyNumber(uint _index, uint number) public {\r... */\n      pop\n      pop\n      jump\t// out\n        /* \"tutorial/part3.sol\":511:602  function getNumbers() public view returns(uint[6] memory) {\r... */\n    tag_10:\n        /* \"tutorial/part3.sol\":553:567  uint[6] memory */\n      tag_18\n      tag_19\n      jump\t// in\n    tag_18:\n        /* \"tutorial/part3.sol\":587:594  numbers */\n      0x00\n        /* \"tutorial/part3.sol\":580:594  return numbers */\n      0x06\n      dup1\n      0x20\n      mul\n      mload(0x40)\n      swap1\n      dup2\n      add\n      0x40\n      mstore\n      dup1\n      swap3\n      swap2\n      swap1\n      dup3\n      0x06\n      dup1\n      iszero\n      tag_21\n      jumpi\n      0x20\n      mul\n      dup3\n      add\n      swap2\n    tag_22:\n      dup2\n      sload\n      dup2\n      mstore\n      0x20\n      add\n      swap1\n      0x01\n      add\n      swap1\n      dup1\n      dup4\n      gt\n      tag_22\n      jumpi\n    tag_21:\n      pop\n      pop\n      pop\n      pop\n      pop\n      swap1\n      pop\n        /* \"tutorial/part3.sol\":511:602  function getNumbers() public view returns(uint[6] memory) {\r... */\n      swap1\n      jump\t// out\n    tag_19:\n      mload(0x40)\n      dup1\n      0xc0\n      add\n      0x40\n      mstore\n      dup1\n      0x06\n      swap1\n      0x20\n      dup3\n      mul\n      dup1\n      calldatasize\n      dup4\n      calldatacopy\n      dup1\n      dup3\n      add\n      swap2\n      pop\n      pop\n      swap1\n      pop\n      pop\n      swap1\n      jump\t// out\n        /* \"#utility.yul\":7:146   */\n    tag_24:\n        /* \"#utility.yul\":53:58   */\n      0x00\n        /* \"#utility.yul\":91:97   */\n      dup2\n        /* \"#utility.yul\":78:98   */\n      calldataload\n        /* \"#utility.yul\":69:98   */\n      swap1\n      pop\n        /* \"#utility.yul\":107:140   */\n      tag_26\n        /* \"#utility.yul\":134:139   */\n      dup2\n        /* \"#utility.yul\":107:140   */\n      tag_27\n      jump\t// in\n    tag_26:\n        /* \"#utility.yul\":7:146   */\n      swap3\n      swap2\n      pop\n      pop\n      jump\t// out\n        /* \"#utility.yul\":152:626   */\n    tag_7:\n        /* \"#utility.yul\":220:226   */\n      0x00\n        /* \"#utility.yul\":228:234   */\n      dup1\n        /* \"#utility.yul\":277:279   */\n      0x40\n        /* \"#utility.yul\":265:274   */\n      dup4\n        /* \"#utility.yul\":256:263   */\n      dup6\n        /* \"#utility.yul\":252:275   */\n      sub\n        /* \"#utility.yul\":248:280   */\n      slt\n        /* \"#utility.yul\":245:364   */\n      iszero\n      tag_29\n      jumpi\n        /* \"#utility.yul\":283:362   */\n      tag_30\n      tag_31\n      jump\t// in\n    tag_30:\n        /* \"#utility.yul\":245:364   */\n    tag_29:\n        /* \"#utility.yul\":403:404   */\n      0x00\n        /* \"#utility.yul\":428:481   */\n      tag_32\n        /* \"#utility.yul\":473:480   */\n      dup6\n        /* \"#utility.yul\":464:470   */\n      dup3\n        /* \"#utility.yul\":453:462   */\n      dup7\n        /* \"#utility.yul\":449:471   */\n      add\n        /* \"#utility.yul\":428:481   */\n      tag_24\n      jump\t// in\n    tag_32:\n        /* \"#utility.yul\":418:481   */\n      swap3\n      pop\n        /* \"#utility.yul\":374:491   */\n      pop\n        /* \"#utility.yul\":530:532   */\n      0x20\n        /* \"#utility.yul\":556:609   */\n      tag_33\n        /* \"#utility.yul\":601:608   */\n      dup6\n        /* \"#utility.yul\":592:598   */\n      dup3\n        /* \"#utility.yul\":581:590   */\n      dup7\n        /* \"#utility.yul\":577:599   */\n      add\n        /* \"#utility.yul\":556:609   */\n      tag_24\n      jump\t// in\n    tag_33:\n        /* \"#utility.yul\":546:609   */\n      swap2\n      pop\n        /* \"#utility.yul\":501:619   */\n      pop\n        /* \"#utility.yul\":152:626   */\n      swap3\n      pop\n      swap3\n      swap1\n      pop\n      jump\t// out\n        /* \"#utility.yul\":632:811   */\n    tag_34:\n        /* \"#utility.yul\":701:711   */\n      0x00\n        /* \"#utility.yul\":722:768   */\n      tag_36\n        /* \"#utility.yul\":764:767   */\n      dup4\n        /* \"#utility.yul\":756:762   */\n      dup4\n        /* \"#utility.yul\":722:768   */\n      tag_37\n      jump\t// in\n    tag_36:\n        /* \"#utility.yul\":800:804   */\n      0x20\n        /* \"#utility.yul\":795:798   */\n      dup4\n        /* \"#utility.yul\":791:805   */\n      add\n        /* \"#utility.yul\":777:805   */\n      swap1\n      pop\n        /* \"#utility.yul\":632:811   */\n      swap3\n      swap2\n      pop\n      pop\n      jump\t// out\n        /* \"#utility.yul\":849:1543   */\n    tag_38:\n        /* \"#utility.yul\":985:1037   */\n      tag_40\n        /* \"#utility.yul\":1031:1036   */\n      dup2\n        /* \"#utility.yul\":985:1037   */\n      tag_41\n      jump\t// in\n    tag_40:\n        /* \"#utility.yul\":1053:1137   */\n      tag_42\n        /* \"#utility.yul\":1130:1136   */\n      dup2\n        /* \"#utility.yul\":1125:1128   */\n      dup5\n        /* \"#utility.yul\":1053:1137   */\n      tag_43\n      jump\t// in\n    tag_42:\n        /* \"#utility.yul\":1046:1137   */\n      swap3\n      pop\n        /* \"#utility.yul\":1161:1215   */\n      tag_44\n        /* \"#utility.yul\":1209:1214   */\n      dup3\n        /* \"#utility.yul\":1161:1215   */\n      tag_45\n      jump\t// in\n    tag_44:\n        /* \"#utility.yul\":1238:1245   */\n      dup1\n        /* \"#utility.yul\":1269:1270   */\n      0x00\n        /* \"#utility.yul\":1254:1536   */\n    tag_46:\n        /* \"#utility.yul\":1279:1285   */\n      dup4\n        /* \"#utility.yul\":1276:1277   */\n      dup2\n        /* \"#utility.yul\":1273:1286   */\n      lt\n        /* \"#utility.yul\":1254:1536   */\n      iszero\n      tag_48\n      jumpi\n        /* \"#utility.yul\":1355:1361   */\n      dup2\n        /* \"#utility.yul\":1349:1362   */\n      mload\n        /* \"#utility.yul\":1382:1445   */\n      tag_49\n        /* \"#utility.yul\":1441:1444   */\n      dup8\n        /* \"#utility.yul\":1426:1439   */\n      dup3\n        /* \"#utility.yul\":1382:1445   */\n      tag_34\n      jump\t// in\n    tag_49:\n        /* \"#utility.yul\":1375:1445   */\n      swap7\n      pop\n        /* \"#utility.yul\":1468:1526   */\n      tag_50\n        /* \"#utility.yul\":1519:1525   */\n      dup4\n        /* \"#utility.yul\":1468:1526   */\n      tag_51\n      jump\t// in\n    tag_50:\n        /* \"#utility.yul\":1458:1526   */\n      swap3\n      pop\n        /* \"#utility.yul\":1314:1536   */\n      pop\n        /* \"#utility.yul\":1301:1302   */\n      0x01\n        /* \"#utility.yul\":1298:1299   */\n      dup2\n        /* \"#utility.yul\":1294:1303   */\n      add\n        /* \"#utility.yul\":1289:1303   */\n      swap1\n      pop\n        /* \"#utility.yul\":1254:1536   */\n      jump(tag_46)\n    tag_48:\n        /* \"#utility.yul\":1258:1272   */\n      pop\n        /* \"#utility.yul\":961:1543   */\n      pop\n      pop\n      pop\n        /* \"#utility.yul\":849:1543   */\n      pop\n      pop\n      jump\t// out\n        /* \"#utility.yul\":1549:1657   */\n    tag_37:\n        /* \"#utility.yul\":1626:1650   */\n      tag_53\n        /* \"#utility.yul\":1644:1649   */\n      dup2\n        /* \"#utility.yul\":1626:1650   */\n      tag_54\n      jump\t// in\n    tag_53:\n        /* \"#utility.yul\":1621:1624   */\n      dup3\n        /* \"#utility.yul\":1614:1651   */\n      mstore\n        /* \"#utility.yul\":1549:1657   */\n      pop\n      pop\n      jump\t// out\n        /* \"#utility.yul\":1663:1978   */\n    tag_12:\n        /* \"#utility.yul\":1802:1806   */\n      0x00\n        /* \"#utility.yul\":1840:1843   */\n      0xc0\n        /* \"#utility.yul\":1829:1838   */\n      dup3\n        /* \"#utility.yul\":1825:1844   */\n      add\n        /* \"#utility.yul\":1817:1844   */\n      swap1\n      pop\n        /* \"#utility.yul\":1854:1971   */\n      tag_56\n        /* \"#utility.yul\":1968:1969   */\n      0x00\n        /* \"#utility.yul\":1957:1966   */\n      dup4\n        /* \"#utility.yul\":1953:1970   */\n      add\n        /* \"#utility.yul\":1944:1950   */\n      dup5\n        /* \"#utility.yul\":1854:1971   */\n      tag_38\n      jump\t// in\n    tag_56:\n        /* \"#utility.yul\":1663:1978   */\n      swap3\n      swap2\n      pop\n      pop\n      jump\t// out\n        /* \"#utility.yul\":2065:2163   */\n    tag_45:\n        /* \"#utility.yul\":2130:2134   */\n      0x00\n        /* \"#utility.yul\":2153:2156   */\n      dup2\n        /* \"#utility.yul\":2145:2156   */\n      swap1\n      pop\n        /* \"#utility.yul\":2065:2163   */\n      swap2\n      swap1\n      pop\n      jump\t// out\n        /* \"#utility.yul\":2169:2273   */\n    tag_41:\n        /* \"#utility.yul\":2234:2240   */\n      0x00\n        /* \"#utility.yul\":2262:2266   */\n      0x06\n        /* \"#utility.yul\":2252:2266   */\n      swap1\n      pop\n        /* \"#utility.yul\":2169:2273   */\n      swap2\n      swap1\n      pop\n      jump\t// out\n        /* \"#utility.yul\":2279:2390   */\n    tag_51:\n        /* \"#utility.yul\":2347:2351   */\n      0x00\n        /* \"#utility.yul\":2379:2383   */\n      0x20\n        /* \"#utility.yul\":2374:2377   */\n      dup3\n        /* \"#utility.yul\":2370:2384   */\n      add\n        /* \"#utility.yul\":2362:2384   */\n      swap1\n      pop\n        /* \"#utility.yul\":2279:2390   */\n      swap2\n      swap1\n      pop\n      jump\t// out\n        /* \"#utility.yul\":2396:2539   */\n    tag_43:\n        /* \"#utility.yul\":2493:2504   */\n      0x00\n        /* \"#utility.yul\":2530:2533   */\n      dup2\n        /* \"#utility.yul\":2515:2533   */\n      swap1\n      pop\n        /* \"#utility.yul\":2396:2539   */\n      swap3\n      swap2\n      pop\n      pop\n      jump\t// out\n        /* \"#utility.yul\":2545:2622   */\n    tag_54:\n        /* \"#utility.yul\":2582:2589   */\n      0x00\n        /* \"#utility.yul\":2611:2616   */\n      dup2\n        /* \"#utility.yul\":2600:2616   */\n      swap1\n      pop\n        /* \"#utility.yul\":2545:2622   */\n      swap2\n      swap1\n      pop\n      jump\t// out\n        /* \"#utility.yul\":2628:2808   */\n    tag_16:\n        /* \"#utility.yul\":2676:2753   */\n      0x4e487b7100000000000000000000000000000000000000000000000000000000\n        /* \"#utility.yul\":2673:2674   */\n      0x00\n        /* \"#utility.yul\":2666:2754   */\n      mstore\n        /* \"#utility.yul\":2773:2777   */\n      0x32\n        /* \"#utility.yul\":2770:2771   */\n      0x04\n        /* \"#utility.yul\":2763:2778   */\n      mstore\n        /* \"#utility.yul\":2797:2801   */\n      0x24\n        /* \"#utility.yul\":2794:2795   */\n      0x00\n        /* \"#utility.yul\":2787:2802   */\n      revert\n        /* \"#utility.yul\":2937:3054   */\n    tag_31:\n        /* \"#utility.yul\":3046:3047   */\n      0x00\n        /* \"#utility.yul\":3043:3044   */\n      dup1\n        /* \"#utility.yul\":3036:3048   */\n      revert\n        /* \"#utility.yul\":3060:3182   */\n    tag_27:\n        /* \"#utility.yul\":3133:3157   */\n      tag_69\n        /* \"#utility.yul\":3151:3156   */\n      dup2\n        /* \"#utility.yul\":3133:3157   */\n      tag_54\n      jump\t// in\n    tag_69:\n        /* \"#utility.yul\":3126:3131   */\n      dup2\n        /* \"#utility.yul\":3123:3158   */\n      eq\n        /* \"#utility.yul\":3113:3176   */\n      tag_70\n      jumpi\n        /* \"#utility.yul\":3172:3173   */\n      0x00\n        /* \"#utility.yul\":3169:3170   */\n      dup1\n        /* \"#utility.yul\":3162:3174   */\n      revert\n        /* \"#utility.yul\":3113:3176   */\n    tag_70:\n        /* \"#utility.yul\":3060:3182   */\n      pop\n      jump\t// out\n\n    auxdata: 0xa26469706673582212203215567fa8df3c345d2453941e7d986fa6e5949e782372d34ca75be466ed02bf64736f6c63430008070033\n}\n",
				"bytecode": {
					"linkReferences": {},
					"object": "60806040526040518060a00160405280600160ff168152602001600260ff168152602001600360ff168152602001600460ff168152602001600560ff16815250600090600561004f929190610062565b5034801561005c57600080fd5b506100c4565b8260068101928215610096579160200282015b82811115610095578251829060ff16905591602001919060010190610075565b5b5090506100a391906100a7565b5090565b5b808211156100c05760008160009055506001016100a8565b5090565b6102a6806100d36000396000f3fe608060405234801561001057600080fd5b50600436106100365760003560e01c8063359f1fed1461003b57806389f915f614610057575b600080fd5b61005560048036038101906100509190610115565b610075565b005b61005f610093565b60405161006c91906101d3565b60405180910390f35b806000836006811061008a57610089610225565b5b01819055505050565b61009b6100de565b60006006806020026040519081016040528092919082600680156100d4576020028201915b8154815260200190600101908083116100c0575b5050505050905090565b6040518060c00160405280600690602082028036833780820191505090505090565b60008135905061010f81610259565b92915050565b6000806040838503121561012c5761012b610254565b5b600061013a85828601610100565b925050602061014b85828601610100565b9150509250929050565b600061016183836101c4565b60208301905092915050565b610176816101f8565b6101808184610210565b925061018b826101ee565b8060005b838110156101bc5781516101a38782610155565b96506101ae83610203565b92505060018101905061018f565b505050505050565b6101cd8161021b565b82525050565b600060c0820190506101e8600083018461016d565b92915050565b6000819050919050565b600060069050919050565b6000602082019050919050565b600081905092915050565b6000819050919050565b7f4e487b7100000000000000000000000000000000000000000000000000000000600052603260045260246000fd5b600080fd5b6102628161021b565b811461026d57600080fd5b5056fea26469706673582212203215567fa8df3c345d2453941e7d986fa6e5949e782372d34ca75be466ed02bf64736f6c63430008070033",
					"opcodes": "PUSH1 0x80 PUSH1 0x40 MSTORE PUSH1 0x40 MLOAD DUP1 PUSH1 0xA0 ADD PUSH1 0x40 MSTORE DUP1 PUSH1 0x1 PUSH1 0xFF AND DUP2 MSTORE PUSH1 0x20 ADD PUSH1 0x2 PUSH1 0xFF AND DUP2 MSTORE PUSH1 0x20 ADD PUSH1 0x3 PUSH1 0xFF AND DUP2 MSTORE PUSH1 0x20 ADD PUSH1 0x4 PUSH1 0xFF AND DUP2 MSTORE PUSH1 0x20 ADD PUSH1 0x5 PUSH1 0xFF AND DUP2 MSTORE POP PUSH1 0x0 SWAP1 PUSH1 0x5 PUSH2 0x4F SWAP3 SWAP2 SWAP1 PUSH2 0x62 JUMP JUMPDEST POP CALLVALUE DUP1 ISZERO PUSH2 0x5C JUMPI PUSH1 0x0 DUP1 REVERT JUMPDEST POP PUSH2 0xC4 JUMP JUMPDEST DUP3 PUSH1 0x6 DUP2 ADD SWAP3 DUP3 ISZERO PUSH2 0x96 JUMPI SWAP2 PUSH1 0x20 MUL DUP3 ADD JUMPDEST DUP3 DUP2 GT ISZERO PUSH2 0x95 JUMPI DUP3 MLOAD DUP3 SWAP1 PUSH1 0xFF AND SWAP1 SSTORE SWAP2 PUSH1 0x20 ADD SWAP2 SWAP1 PUSH1 0x1 ADD SWAP1 PUSH2 0x75 JUMP JUMPDEST JUMPDEST POP SWAP1 POP PUSH2 0xA3 SWAP2 SWAP1 PUSH2 0xA7 JUMP JUMPDEST POP SWAP1 JUMP JUMPDEST JUMPDEST DUP1 DUP3 GT ISZERO PUSH2 0xC0 JUMPI PUSH1 0x0 DUP2 PUSH1 0x0 SWAP1 SSTORE POP PUSH1 0x1 ADD PUSH2 0xA8 JUMP JUMPDEST POP SWAP1 JUMP JUMPDEST PUSH2 0x2A6 DUP1 PUSH2 0xD3 PUSH1 0x0 CODECOPY PUSH1 0x0 RETURN INVALID PUSH1 0x80 PUSH1 0x40 MSTORE CALLVALUE DUP1 ISZERO PUSH2 0x10 JUMPI PUSH1 0x0 DUP1 REVERT JUMPDEST POP PUSH1 0x4 CALLDATASIZE LT PUSH2 0x36 JUMPI PUSH1 0x0 CALLDATALOAD PUSH1 0xE0 SHR DUP1 PUSH4 0x359F1FED EQ PUSH2 0x3B JUMPI DUP1 PUSH4 0x89F915F6 EQ PUSH2 0x57 JUMPI JUMPDEST PUSH1 0x0 DUP1 REVERT JUMPDEST PUSH2 0x55 PUSH1 0x4 DUP1 CALLDATASIZE SUB DUP2 ADD SWAP1 PUSH2 0x50 SWAP2 SWAP1 PUSH2 0x115 JUMP JUMPDEST PUSH2 0x75 JUMP JUMPDEST STOP JUMPDEST PUSH2 0x5F PUSH2 0x93 JUMP JUMPDEST PUSH1 0x40 MLOAD PUSH2 0x6C SWAP2 SWAP1 PUSH2 0x1D3 JUMP JUMPDEST PUSH1 0x40 MLOAD DUP1 SWAP2 SUB SWAP1 RETURN JUMPDEST DUP1 PUSH1 0x0 DUP4 PUSH1 0x6 DUP2 LT PUSH2 0x8A JUMPI PUSH2 0x89 PUSH2 0x225 JUMP JUMPDEST JUMPDEST ADD DUP2 SWAP1 SSTORE POP POP POP JUMP JUMPDEST PUSH2 0x9B PUSH2 0xDE JUMP JUMPDEST PUSH1 0x0 PUSH1 0x6 DUP1 PUSH1 0x20 MUL PUSH1 0x40 MLOAD SWAP1 DUP2 ADD PUSH1 0x40 MSTORE DUP1 SWAP3 SWAP2 SWAP1 DUP3 PUSH1 0x6 DUP1 ISZERO PUSH2 0xD4 JUMPI PUSH1 0x20 MUL DUP3 ADD SWAP2 JUMPDEST DUP2 SLOAD DUP2 MSTORE PUSH1 0x20 ADD SWAP1 PUSH1 0x1 ADD SWAP1 DUP1 DUP4 GT PUSH2 0xC0 JUMPI JUMPDEST POP POP POP POP POP SWAP1 POP SWAP1 JUMP JUMPDEST PUSH1 0x40 MLOAD DUP1 PUSH1 0xC0 ADD PUSH1 0x40 MSTORE DUP1 PUSH1 0x6 SWAP1 PUSH1 0x20 DUP3 MUL DUP1 CALLDATASIZE DUP4 CALLDATACOPY DUP1 DUP3 ADD SWAP2 POP POP SWAP1 POP POP SWAP1 JUMP JUMPDEST PUSH1 0x0 DUP2 CALLDATALOAD SWAP1 POP PUSH2 0x10F DUP2 PUSH2 0x259 JUMP JUMPDEST SWAP3 SWAP2 POP POP JUMP JUMPDEST PUSH1 0x0 DUP1 PUSH1 0x40 DUP4 DUP6 SUB SLT ISZERO PUSH2 0x12C JUMPI PUSH2 0x12B PUSH2 0x254 JUMP JUMPDEST JUMPDEST PUSH1 0x0 PUSH2 0x13A DUP6 DUP3 DUP7 ADD PUSH2 0x100 JUMP JUMPDEST SWAP3 POP POP PUSH1 0x20 PUSH2 0x14B DUP6 DUP3 DUP7 ADD PUSH2 0x100 JUMP JUMPDEST SWAP2 POP POP SWAP3 POP SWAP3 SWAP1 POP JUMP JUMPDEST PUSH1 0x0 PUSH2 0x161 DUP4 DUP4 PUSH2 0x1C4 JUMP JUMPDEST PUSH1 0x20 DUP4 ADD SWAP1 POP SWAP3 SWAP2 POP POP JUMP JUMPDEST PUSH2 0x176 DUP2 PUSH2 0x1F8 JUMP JUMPDEST PUSH2 0x180 DUP2 DUP5 PUSH2 0x210 JUMP JUMPDEST SWAP3 POP PUSH2 0x18B DUP3 PUSH2 0x1EE JUMP JUMPDEST DUP1 PUSH1 0x0 JUMPDEST DUP4 DUP2 LT ISZERO PUSH2 0x1BC JUMPI DUP2 MLOAD PUSH2 0x1A3 DUP8 DUP3 PUSH2 0x155 JUMP JUMPDEST SWAP7 POP PUSH2 0x1AE DUP4 PUSH2 0x203 JUMP JUMPDEST SWAP3 POP POP PUSH1 0x1 DUP2 ADD SWAP1 POP PUSH2 0x18F JUMP JUMPDEST POP POP POP POP POP POP JUMP JUMPDEST PUSH2 0x1CD DUP2 PUSH2 0x21B JUMP JUMPDEST DUP3 MSTORE POP POP JUMP JUMPDEST PUSH1 0x0 PUSH1 0xC0 DUP3 ADD SWAP1 POP PUSH2 0x1E8 PUSH1 0x0 DUP4 ADD DUP5 PUSH2 0x16D JUMP JUMPDEST SWAP3 SWAP2 POP POP JUMP JUMPDEST PUSH1 0x0 DUP2 SWAP1 POP SWAP2 SWAP1 POP JUMP JUMPDEST PUSH1 0x0 PUSH1 0x6 SWAP1 POP SWAP2 SWAP1 POP JUMP JUMPDEST PUSH1 0x0 PUSH1 0x20 DUP3 ADD SWAP1 POP SWAP2 SWAP1 POP JUMP JUMPDEST PUSH1 0x0 DUP2 SWAP1 POP SWAP3 SWAP2 POP POP JUMP JUMPDEST PUSH1 0x0 DUP2 SWAP1 POP SWAP2 SWAP1 POP JUMP JUMPDEST PUSH32 0x4E487B7100000000000000000000000000000000000000000000000000000000 PUSH1 0x0 MSTORE PUSH1 0x32 PUSH1 0x4 MSTORE PUSH1 0x24 PUSH1 0x0 REVERT JUMPDEST PUSH1 0x0 DUP1 REVERT JUMPDEST PUSH2 0x262 DUP2 PUSH2 0x21B JUMP JUMPDEST DUP2 EQ PUSH2 0x26D JUMPI PUSH1 0x0 DUP1 REVERT JUMPDEST POP JUMP INVALID LOG2 PUSH5 0x6970667358 0x22 SLT KECCAK256 ORIGIN ISZERO JUMP PUSH32 0xA8DF3C345D2453941E7D986FA6E5949E782372D34CA75BE466ED02BF64736F6C PUSH4 0x43000807 STOP CALLER "
				},
				"gasEstimates": {
					"creation": {
						"codeDepositCost": "135600",
						"executionCost": "infinite",
						"totalCost": "infinite"
					},
					"external": {
						"getNumbers()": "infinite",
						"modifyNumber(uint256,uint256)": "infinite"
					}
				},
				"methodIdentifiers": {
					"getNumbers()": "89f915f6",
					"modifyNumber(uint256,uint256)": "359f1fed"
				}
			},
			"storageLayout": {
				"storage": [
					{
						"astId": 60,
						"contract": "tutorial/part3.sol:Array2",
						"label": "numbers",
						"offset": 0,
						"slot": "0",
						"type": "t_array(t_uint256)6_storage"
					}
				],
				"types": {
					"t_array(t_uint256)6_storage": {
						"base": "t_uint256",
						"encoding": "inplace",
						"label": "uint256[6]",
						"numberOfBytes": "192"
					},
					"t_uint256": {
						"encoding": "inplace",
						"label": "uint256",
						"numberOfBytes": "32"
					}
				}
			},
			"userdoc": {
				"kind": "user",
				"methods": {},
				"version": 1
			}
		}
	}
}